:020000040000FA
:0400000052EF3FF08C
:107EA400000182EF3FF0016E01C0ADFF1200949C0F
:107EB400948E000E016E2D0E026E310E036E010EB5
:107EC400046E0EC005F00FC006F010C007F011C01C
:107ED40008F0AEEC3FF0070E75EF3FF0D890043297
:107EE400033202320132E82E70EF3FF00104AF6E2C
:107EF400AC94AC98AB8EAC9CAC8AAB9CAB881200B7
:107F0400800E0E6E250E0F6E000E106E000E116E9A
:107F140059EC3FF0330E55EC3FF00D0E136EAF0EDF
:107F2400126EB60EE82EFED7122EFCD7132EFAD7F9
:107F340000D0990E55EC3FF00D0E136EAF0E126E7D
:107F4400B60EE82EFED7122EFCD7132EFAD700D089
:107F54008CEF3FF000EF00F0000E096E000E0A6E89
:107F6400000E0B6E000E0C6E055006100710081064
:107F7400D8B4BFEF3FF0C1EF3FF0F7EF3FF0010E91
:107F84000D6ECBEF3FF0D89005360636073608362F
:107F94000D2A08AED0EF3FF0D2EF3FF0C5EF3FF02F
:107FA400D89009360A360B360C360550015C06505B
:107FB40002580750035808500458D8A0E4EF3FF083
:107FC400E6EF3FF0EFEF3FF00550015E0650025A36
:107FD4000750035A0850045A0980D89008320732CF
:107FE400063205320D2ED2EF3FF009C001F00AC06F
:0C7FF40002F00BC003F00CC004F01200FF
:020000040020DA
:08000000FFFFFFFFFFFFFFFF00
:020000040030CA
:0E000000200C191EFF8381FF0FC00FE00F4080
:00000001FF
